{
  "_format": "hh-sol-artifact-1",
  "contractName": "FraxlendPair",
  "sourceName": "contracts/FraxlendPair.sol",
  "abi": [
    {
      "inputs": [
        {
          "internalType": "string",
          "name": "_name",
          "type": "string"
        },
        {
          "internalType": "address",
          "name": "_fujinManager",
          "type": "address"
        },
        {
          "internalType": "address",
          "name": "_rateContract",
          "type": "address"
        },
        {
          "internalType": "address",
          "name": "_capManager",
          "type": "address"
        },
        {
          "internalType": "bytes",
          "name": "_immutables",
          "type": "bytes"
        },
        {
          "internalType": "uint256",
          "name": "_liquidationFee",
          "type": "uint256"
        },
        {
          "internalType": "bool",
          "name": "_isBorrowerWhitelistActive",
          "type": "bool"
        },
        {
          "internalType": "bool",
          "name": "_isLenderWhitelistActive",
          "type": "bool"
        }
      ],
      "stateMutability": "nonpayable",
      "type": "constructor"
    },
    {
      "inputs": [],
      "name": "AlreadyInitialized",
      "type": "error"
    },
    {
      "inputs": [],
      "name": "BadProtocolFee",
      "type": "error"
    },
    {
      "inputs": [],
      "name": "BadSwapper",
      "type": "error"
    },
    {
      "inputs": [],
      "name": "BorrowerSolvent",
      "type": "error"
    },
    {
      "inputs": [],
      "name": "BorrowerWhitelistRequired",
      "type": "error"
    },
    {
      "inputs": [
        {
          "internalType": "address",
          "name": "token",
          "type": "address"
        }
      ],
      "name": "DuplicateToken",
      "type": "error"
    },
    {
      "inputs": [],
      "name": "HasCollateral",
      "type": "error"
    },
    {
      "inputs": [],
      "name": "Insolvent",
      "type": "error"
    },
    {
      "inputs": [
        {
          "internalType": "uint256",
          "name": "_assets",
          "type": "uint256"
        },
        {
          "internalType": "uint256",
          "name": "_request",
          "type": "uint256"
        }
      ],
      "name": "InsufficientAssetsInContract",
      "type": "error"
    },
    {
      "inputs": [
        {
          "internalType": "address",
          "name": "_expected",
          "type": "address"
        },
        {
          "internalType": "address",
          "name": "_actual",
          "type": "address"
        }
      ],
      "name": "InvalidPath",
      "type": "error"
    },
    {
      "inputs": [
        {
          "internalType": "address",
          "name": "token",
          "type": "address"
        }
      ],
      "name": "InvalidToken",
      "type": "error"
    },
    {
      "inputs": [
        {
          "internalType": "uint256",
          "name": "ltv",
          "type": "uint256"
        }
      ],
      "name": "LTVTooHigh",
      "type": "error"
    },
    {
      "inputs": [],
      "name": "LendingGloballyPaused",
      "type": "error"
    },
    {
      "inputs": [],
      "name": "LendingPaused",
      "type": "error"
    },
    {
      "inputs": [],
      "name": "NameEmpty",
      "type": "error"
    },
    {
      "inputs": [],
      "name": "NoAssetsOrCollaterals",
      "type": "error"
    },
    {
      "inputs": [],
      "name": "NotDeployer",
      "type": "error"
    },
    {
      "inputs": [
        {
          "internalType": "address",
          "name": "_address",
          "type": "address"
        }
      ],
      "name": "NotOnWhitelist",
      "type": "error"
    },
    {
      "inputs": [],
      "name": "OnlyApprovedBorrowers",
      "type": "error"
    },
    {
      "inputs": [],
      "name": "OnlyApprovedLenders",
      "type": "error"
    },
    {
      "inputs": [],
      "name": "OnlyFujinManager",
      "type": "error"
    },
    {
      "inputs": [],
      "name": "OnlyTimeLock",
      "type": "error"
    },
    {
      "inputs": [
        {
          "internalType": "address",
          "name": "_oracle",
          "type": "address"
        }
      ],
      "name": "OracleLTEZero",
      "type": "error"
    },
    {
      "inputs": [
        {
          "internalType": "uint256",
          "name": "_blockTimestamp",
          "type": "uint256"
        },
        {
          "internalType": "uint256",
          "name": "_deadline",
          "type": "uint256"
        }
      ],
      "name": "PastDeadline",
      "type": "error"
    },
    {
      "inputs": [],
      "name": "PriceTooLarge",
      "type": "error"
    },
    {
      "inputs": [],
      "name": "ProtocolOrOwnerOnly",
      "type": "error"
    },
    {
      "inputs": [
        {
          "internalType": "uint256",
          "name": "_minOut",
          "type": "uint256"
        },
        {
          "internalType": "uint256",
          "name": "_actual",
          "type": "uint256"
        }
      ],
      "name": "SlippageTooHigh",
      "type": "error"
    },
    {
      "anonymous": false,
      "inputs": [
        {
          "indexed": false,
          "internalType": "address",
          "name": "token",
          "type": "address"
        },
        {
          "indexed": true,
          "internalType": "address",
          "name": "_sender",
          "type": "address"
        },
        {
          "indexed": true,
          "internalType": "address",
          "name": "_borrower",
          "type": "address"
        },
        {
          "indexed": false,
          "internalType": "uint256",
          "name": "_collateralAmount",
          "type": "uint256"
        }
      ],
      "name": "AddCollateral",
      "type": "event"
    },
    {
      "anonymous": false,
      "inputs": [
        {
          "indexed": false,
          "internalType": "uint256",
          "name": "_interestEarned",
          "type": "uint256"
        },
        {
          "indexed": false,
          "internalType": "uint256",
          "name": "_rate",
          "type": "uint256"
        },
        {
          "indexed": false,
          "internalType": "uint256",
          "name": "_deltaTime",
          "type": "uint256"
        },
        {
          "indexed": false,
          "internalType": "uint256",
          "name": "_feesAmount",
          "type": "uint256"
        },
        {
          "indexed": false,
          "internalType": "uint256",
          "name": "_feesShare",
          "type": "uint256"
        }
      ],
      "name": "AddInterest",
      "type": "event"
    },
    {
      "anonymous": false,
      "inputs": [
        {
          "indexed": false,
          "internalType": "address",
          "name": "asset",
          "type": "address"
        },
        {
          "indexed": false,
          "internalType": "address",
          "name": "borrower",
          "type": "address"
        },
        {
          "indexed": false,
          "internalType": "uint256",
          "name": "sharesToAdjust",
          "type": "uint256"
        },
        {
          "indexed": false,
          "internalType": "uint256",
          "name": "amountToAdjust",
          "type": "uint256"
        }
      ],
      "name": "AdjustAsset",
      "type": "event"
    },
    {
      "anonymous": false,
      "inputs": [
        {
          "indexed": false,
          "internalType": "address",
          "name": "token",
          "type": "address"
        },
        {
          "indexed": true,
          "internalType": "address",
          "name": "_borrower",
          "type": "address"
        },
        {
          "indexed": true,
          "internalType": "address",
          "name": "_receiver",
          "type": "address"
        },
        {
          "indexed": false,
          "internalType": "uint256",
          "name": "_borrowAmount",
          "type": "uint256"
        },
        {
          "indexed": false,
          "internalType": "uint256",
          "name": "_sharesAdded",
          "type": "uint256"
        }
      ],
      "name": "BorrowAsset",
      "type": "event"
    },
    {
      "anonymous": false,
      "inputs": [
        {
          "indexed": false,
          "internalType": "uint32",
          "name": "_newFee",
          "type": "uint32"
        }
      ],
      "name": "ChangeFee",
      "type": "event"
    },
    {
      "anonymous": false,
      "inputs": [
        {
          "indexed": true,
          "internalType": "address",
          "name": "asset",
          "type": "address"
        },
        {
          "indexed": true,
          "internalType": "address",
          "name": "caller",
          "type": "address"
        },
        {
          "indexed": true,
          "internalType": "address",
          "name": "owner",
          "type": "address"
        },
        {
          "indexed": false,
          "internalType": "uint256",
          "name": "assets",
          "type": "uint256"
        },
        {
          "indexed": false,
          "internalType": "uint256",
          "name": "shares",
          "type": "uint256"
        }
      ],
      "name": "Deposit",
      "type": "event"
    },
    {
      "anonymous": false,
      "inputs": [
        {
          "indexed": false,
          "internalType": "address",
          "name": "_asset",
          "type": "address"
        },
        {
          "indexed": false,
          "internalType": "uint256",
          "name": "_sharesToLiquidate",
          "type": "uint256"
        },
        {
          "indexed": false,
          "internalType": "address",
          "name": "_collateral",
          "type": "address"
        },
        {
          "indexed": true,
          "internalType": "address",
          "name": "_borrower",
          "type": "address"
        },
        {
          "indexed": false,
          "internalType": "uint256",
          "name": "_collateralForLiquidator",
          "type": "uint256"
        },
        {
          "indexed": false,
          "internalType": "uint256",
          "name": "_amountLiquidatorToRepay",
          "type": "uint256"
        }
      ],
      "name": "Liquidate",
      "type": "event"
    },
    {
      "anonymous": false,
      "inputs": [
        {
          "indexed": true,
          "internalType": "address",
          "name": "previousOwner",
          "type": "address"
        },
        {
          "indexed": true,
          "internalType": "address",
          "name": "newOwner",
          "type": "address"
        }
      ],
      "name": "OwnershipTransferred",
      "type": "event"
    },
    {
      "anonymous": false,
      "inputs": [
        {
          "indexed": false,
          "internalType": "address",
          "name": "account",
          "type": "address"
        }
      ],
      "name": "Paused",
      "type": "event"
    },
    {
      "anonymous": false,
      "inputs": [
        {
          "indexed": false,
          "internalType": "address",
          "name": "token",
          "type": "address"
        },
        {
          "indexed": true,
          "internalType": "address",
          "name": "_sender",
          "type": "address"
        },
        {
          "indexed": false,
          "internalType": "uint256",
          "name": "_collateralAmount",
          "type": "uint256"
        },
        {
          "indexed": true,
          "internalType": "address",
          "name": "_receiver",
          "type": "address"
        },
        {
          "indexed": true,
          "internalType": "address",
          "name": "_borrower",
          "type": "address"
        }
      ],
      "name": "RemoveCollateral",
      "type": "event"
    },
    {
      "anonymous": false,
      "inputs": [
        {
          "indexed": false,
          "internalType": "address",
          "name": "token",
          "type": "address"
        },
        {
          "indexed": true,
          "internalType": "address",
          "name": "_payer",
          "type": "address"
        },
        {
          "indexed": true,
          "internalType": "address",
          "name": "_borrower",
          "type": "address"
        },
        {
          "indexed": false,
          "internalType": "uint256",
          "name": "_amountToRepay",
          "type": "uint256"
        },
        {
          "indexed": false,
          "internalType": "uint256",
          "name": "_shares",
          "type": "uint256"
        }
      ],
      "name": "RepayAsset",
      "type": "event"
    },
    {
      "anonymous": false,
      "inputs": [
        {
          "indexed": true,
          "internalType": "address",
          "name": "_address",
          "type": "address"
        },
        {
          "indexed": false,
          "internalType": "bool",
          "name": "_approval",
          "type": "bool"
        }
      ],
      "name": "SetApprovedBorrower",
      "type": "event"
    },
    {
      "anonymous": false,
      "inputs": [
        {
          "indexed": true,
          "internalType": "address",
          "name": "_address",
          "type": "address"
        },
        {
          "indexed": false,
          "internalType": "bool",
          "name": "_approval",
          "type": "bool"
        }
      ],
      "name": "SetApprovedLender",
      "type": "event"
    },
    {
      "anonymous": false,
      "inputs": [
        {
          "indexed": false,
          "internalType": "address",
          "name": "_swapper",
          "type": "address"
        },
        {
          "indexed": false,
          "internalType": "bool",
          "name": "_approval",
          "type": "bool"
        }
      ],
      "name": "SetSwapper",
      "type": "event"
    },
    {
      "anonymous": false,
      "inputs": [
        {
          "indexed": false,
          "internalType": "address",
          "name": "_oldAddress",
          "type": "address"
        },
        {
          "indexed": false,
          "internalType": "address",
          "name": "_newAddress",
          "type": "address"
        }
      ],
      "name": "SetTimeLock",
      "type": "event"
    },
    {
      "anonymous": false,
      "inputs": [
        {
          "indexed": false,
          "internalType": "address",
          "name": "account",
          "type": "address"
        }
      ],
      "name": "Unpaused",
      "type": "event"
    },
    {
      "anonymous": false,
      "inputs": [
        {
          "indexed": false,
          "internalType": "uint256",
          "name": "_ratePerSec",
          "type": "uint256"
        },
        {
          "indexed": false,
          "internalType": "uint256",
          "name": "_deltaTime",
          "type": "uint256"
        },
        {
          "indexed": false,
          "internalType": "uint256",
          "name": "_utilizationRate",
          "type": "uint256"
        },
        {
          "indexed": false,
          "internalType": "uint256",
          "name": "_newRatePerSec",
          "type": "uint256"
        }
      ],
      "name": "UpdateRate",
      "type": "event"
    },
    {
      "anonymous": false,
      "inputs": [
        {
          "indexed": false,
          "internalType": "address",
          "name": "token",
          "type": "address"
        },
        {
          "indexed": true,
          "internalType": "address",
          "name": "caller",
          "type": "address"
        },
        {
          "indexed": true,
          "internalType": "address",
          "name": "receiver",
          "type": "address"
        },
        {
          "indexed": false,
          "internalType": "uint256",
          "name": "assets",
          "type": "uint256"
        },
        {
          "indexed": false,
          "internalType": "uint256",
          "name": "shares",
          "type": "uint256"
        }
      ],
      "name": "Withdraw",
      "type": "event"
    },
    {
      "anonymous": false,
      "inputs": [
        {
          "indexed": false,
          "internalType": "address",
          "name": "_asset",
          "type": "address"
        },
        {
          "indexed": false,
          "internalType": "uint128",
          "name": "_shares",
          "type": "uint128"
        },
        {
          "indexed": false,
          "internalType": "address",
          "name": "_recipient",
          "type": "address"
        },
        {
          "indexed": false,
          "internalType": "uint256",
          "name": "_amountToTransfer",
          "type": "uint256"
        }
      ],
      "name": "WithdrawFees",
      "type": "event"
    },
    {
      "inputs": [],
      "name": "CIRCUIT_BREAKER_ADDRESS",
      "outputs": [
        {
          "internalType": "address",
          "name": "",
          "type": "address"
        }
      ],
      "stateMutability": "view",
      "type": "function"
    },
    {
      "inputs": [],
      "name": "COMPTROLLER_ADDRESS",
      "outputs": [
        {
          "internalType": "address",
          "name": "",
          "type": "address"
        }
      ],
      "stateMutability": "view",
      "type": "function"
    },
    {
      "inputs": [],
      "name": "DEPLOYER_ADDRESS",
      "outputs": [
        {
          "internalType": "address",
          "name": "",
          "type": "address"
        }
      ],
      "stateMutability": "view",
      "type": "function"
    },
    {
      "inputs": [],
      "name": "TIME_LOCK_ADDRESS",
      "outputs": [
        {
          "internalType": "address",
          "name": "",
          "type": "address"
        }
      ],
      "stateMutability": "view",
      "type": "function"
    },
    {
      "inputs": [
        {
          "internalType": "address",
          "name": "token",
          "type": "address"
        },
        {
          "internalType": "uint256",
          "name": "_collateralAmount",
          "type": "uint256"
        },
        {
          "internalType": "address",
          "name": "_borrower",
          "type": "address"
        }
      ],
      "name": "addCollateral",
      "outputs": [],
      "stateMutability": "nonpayable",
      "type": "function"
    },
    {
      "inputs": [
        {
          "internalType": "address",
          "name": "token",
          "type": "address"
        }
      ],
      "name": "addInterest",
      "outputs": [
        {
          "internalType": "uint256",
          "name": "_interestEarned",
          "type": "uint256"
        },
        {
          "internalType": "uint256",
          "name": "_feesAmount",
          "type": "uint256"
        },
        {
          "internalType": "uint256",
          "name": "_feesShare",
          "type": "uint256"
        },
        {
          "internalType": "uint64",
          "name": "_newRate",
          "type": "uint64"
        }
      ],
      "stateMutability": "nonpayable",
      "type": "function"
    },
    {
      "inputs": [
        {
          "internalType": "address",
          "name": "_asset",
          "type": "address"
        },
        {
          "internalType": "address",
          "name": "_borrower",
          "type": "address"
        },
        {
          "internalType": "address",
          "name": "_rewardee",
          "type": "address"
        }
      ],
      "name": "adjustAsset",
      "outputs": [],
      "stateMutability": "nonpayable",
      "type": "function"
    },
    {
      "inputs": [
        {
          "internalType": "address",
          "name": "",
          "type": "address"
        }
      ],
      "name": "approvedBorrowers",
      "outputs": [
        {
          "internalType": "bool",
          "name": "",
          "type": "bool"
        }
      ],
      "stateMutability": "view",
      "type": "function"
    },
    {
      "inputs": [
        {
          "internalType": "address",
          "name": "",
          "type": "address"
        }
      ],
      "name": "approvedLenders",
      "outputs": [
        {
          "internalType": "bool",
          "name": "",
          "type": "bool"
        }
      ],
      "stateMutability": "view",
      "type": "function"
    },
    {
      "inputs": [
        {
          "internalType": "address",
          "name": "",
          "type": "address"
        }
      ],
      "name": "assets",
      "outputs": [
        {
          "internalType": "contract IERC20",
          "name": "token",
          "type": "address"
        },
        {
          "internalType": "uint8",
          "name": "tokenDecimals",
          "type": "uint8"
        },
        {
          "internalType": "contract AggregatorV3Interface",
          "name": "oracle",
          "type": "address"
        },
        {
          "internalType": "uint8",
          "name": "oracleDecimals",
          "type": "uint8"
        },
        {
          "components": [
            {
              "internalType": "uint128",
              "name": "amount",
              "type": "uint128"
            },
            {
              "internalType": "uint128",
              "name": "shares",
              "type": "uint128"
            }
          ],
          "internalType": "struct VaultAccount",
          "name": "totalAsset",
          "type": "tuple"
        },
        {
          "components": [
            {
              "internalType": "uint128",
              "name": "amount",
              "type": "uint128"
            },
            {
              "internalType": "uint128",
              "name": "shares",
              "type": "uint128"
            }
          ],
          "internalType": "struct VaultAccount",
          "name": "totalBorrow",
          "type": "tuple"
        },
        {
          "internalType": "contract IFToken",
          "name": "fToken",
          "type": "address"
        },
        {
          "components": [
            {
              "internalType": "uint64",
              "name": "lastBlock",
              "type": "uint64"
            },
            {
              "internalType": "uint64",
              "name": "feeToProtocolRate",
              "type": "uint64"
            },
            {
              "internalType": "uint64",
              "name": "lastTimestamp",
              "type": "uint64"
            },
            {
              "internalType": "uint64",
              "name": "ratePerSec",
              "type": "uint64"
            }
          ],
          "internalType": "struct IFraxlendPairCore.CurrentRateInfo",
          "name": "currentRateInfo",
          "type": "tuple"
        }
      ],
      "stateMutability": "view",
      "type": "function"
    },
    {
      "inputs": [
        {
          "internalType": "uint256",
          "name": "",
          "type": "uint256"
        }
      ],
      "name": "assetsList",
      "outputs": [
        {
          "internalType": "address",
          "name": "",
          "type": "address"
        }
      ],
      "stateMutability": "view",
      "type": "function"
    },
    {
      "inputs": [
        {
          "internalType": "address",
          "name": "token",
          "type": "address"
        },
        {
          "internalType": "uint256",
          "name": "_borrowAmount",
          "type": "uint256"
        },
        {
          "internalType": "address",
          "name": "_collateralToken",
          "type": "address"
        },
        {
          "internalType": "uint256",
          "name": "_collateralAmount",
          "type": "uint256"
        },
        {
          "internalType": "address",
          "name": "_receiver",
          "type": "address"
        }
      ],
      "name": "borrowAsset",
      "outputs": [
        {
          "internalType": "uint256",
          "name": "_shares",
          "type": "uint256"
        }
      ],
      "stateMutability": "nonpayable",
      "type": "function"
    },
    {
      "inputs": [],
      "name": "borrowerWhitelistActive",
      "outputs": [
        {
          "internalType": "bool",
          "name": "",
          "type": "bool"
        }
      ],
      "stateMutability": "view",
      "type": "function"
    },
    {
      "inputs": [],
      "name": "capManager",
      "outputs": [
        {
          "internalType": "contract ICapManager",
          "name": "",
          "type": "address"
        }
      ],
      "stateMutability": "view",
      "type": "function"
    },
    {
      "inputs": [
        {
          "internalType": "address",
          "name": "token",
          "type": "address"
        },
        {
          "internalType": "uint32",
          "name": "_newFee",
          "type": "uint32"
        }
      ],
      "name": "changeFee",
      "outputs": [],
      "stateMutability": "nonpayable",
      "type": "function"
    },
    {
      "inputs": [
        {
          "internalType": "address",
          "name": "",
          "type": "address"
        }
      ],
      "name": "collaterals",
      "outputs": [
        {
          "internalType": "contract IERC20",
          "name": "token",
          "type": "address"
        },
        {
          "internalType": "uint8",
          "name": "tokenDecimals",
          "type": "uint8"
        },
        {
          "internalType": "contract AggregatorV3Interface",
          "name": "oracle",
          "type": "address"
        },
        {
          "internalType": "uint8",
          "name": "oracleDecimals",
          "type": "uint8"
        },
        {
          "internalType": "uint256",
          "name": "ltv",
          "type": "uint256"
        },
        {
          "internalType": "uint256",
          "name": "total",
          "type": "uint256"
        }
      ],
      "stateMutability": "view",
      "type": "function"
    },
    {
      "inputs": [
        {
          "internalType": "uint256",
          "name": "",
          "type": "uint256"
        }
      ],
      "name": "collateralsList",
      "outputs": [
        {
          "internalType": "address",
          "name": "",
          "type": "address"
        }
      ],
      "stateMutability": "view",
      "type": "function"
    },
    {
      "inputs": [
        {
          "components": [
            {
              "internalType": "contract IERC20",
              "name": "token",
              "type": "address"
            },
            {
              "internalType": "uint8",
              "name": "tokenDecimals",
              "type": "uint8"
            },
            {
              "internalType": "contract AggregatorV3Interface",
              "name": "oracle",
              "type": "address"
            },
            {
              "internalType": "uint8",
              "name": "oracleDecimals",
              "type": "uint8"
            },
            {
              "components": [
                {
                  "internalType": "uint128",
                  "name": "amount",
                  "type": "uint128"
                },
                {
                  "internalType": "uint128",
                  "name": "shares",
                  "type": "uint128"
                }
              ],
              "internalType": "struct VaultAccount",
              "name": "totalAsset",
              "type": "tuple"
            },
            {
              "components": [
                {
                  "internalType": "uint128",
                  "name": "amount",
                  "type": "uint128"
                },
                {
                  "internalType": "uint128",
                  "name": "shares",
                  "type": "uint128"
                }
              ],
              "internalType": "struct VaultAccount",
              "name": "totalBorrow",
              "type": "tuple"
            },
            {
              "internalType": "contract IFToken",
              "name": "fToken",
              "type": "address"
            },
            {
              "components": [
                {
                  "internalType": "uint64",
                  "name": "lastBlock",
                  "type": "uint64"
                },
                {
                  "internalType": "uint64",
                  "name": "feeToProtocolRate",
                  "type": "uint64"
                },
                {
                  "internalType": "uint64",
                  "name": "lastTimestamp",
                  "type": "uint64"
                },
                {
                  "internalType": "uint64",
                  "name": "ratePerSec",
                  "type": "uint64"
                }
              ],
              "internalType": "struct IFraxlendPairCore.CurrentRateInfo",
              "name": "currentRateInfo",
              "type": "tuple"
            }
          ],
          "internalType": "struct IFraxlendPairCore.Asset[]",
          "name": "_assets",
          "type": "tuple[]"
        }
      ],
      "name": "defineAssets",
      "outputs": [],
      "stateMutability": "nonpayable",
      "type": "function"
    },
    {
      "inputs": [
        {
          "components": [
            {
              "internalType": "contract IERC20",
              "name": "token",
              "type": "address"
            },
            {
              "internalType": "uint8",
              "name": "tokenDecimals",
              "type": "uint8"
            },
            {
              "internalType": "contract AggregatorV3Interface",
              "name": "oracle",
              "type": "address"
            },
            {
              "internalType": "uint8",
              "name": "oracleDecimals",
              "type": "uint8"
            },
            {
              "internalType": "uint256",
              "name": "ltv",
              "type": "uint256"
            },
            {
              "internalType": "uint256",
              "name": "total",
              "type": "uint256"
            }
          ],
          "internalType": "struct IFraxlendPairCore.Collateral[]",
          "name": "_collaterals",
          "type": "tuple[]"
        }
      ],
      "name": "defineCollaterals",
      "outputs": [],
      "stateMutability": "nonpayable",
      "type": "function"
    },
    {
      "inputs": [
        {
          "internalType": "address",
          "name": "token",
          "type": "address"
        },
        {
          "internalType": "uint256",
          "name": "_amount",
          "type": "uint256"
        },
        {
          "internalType": "address",
          "name": "_receiver",
          "type": "address"
        }
      ],
      "name": "deposit",
      "outputs": [
        {
          "internalType": "uint256",
          "name": "_sharesReceived",
          "type": "uint256"
        }
      ],
      "stateMutability": "nonpayable",
      "type": "function"
    },
    {
      "inputs": [
        {
          "internalType": "address",
          "name": "_borrower",
          "type": "address"
        }
      ],
      "name": "effectiveCollateralValue",
      "outputs": [
        {
          "internalType": "uint256",
          "name": "totalValue",
          "type": "uint256"
        }
      ],
      "stateMutability": "view",
      "type": "function"
    },
    {
      "inputs": [],
      "name": "exchangeRateInfo",
      "outputs": [
        {
          "internalType": "uint32",
          "name": "lastTimestamp",
          "type": "uint32"
        },
        {
          "internalType": "uint224",
          "name": "exchangeRate",
          "type": "uint224"
        }
      ],
      "stateMutability": "view",
      "type": "function"
    },
    {
      "inputs": [],
      "name": "fujinManager",
      "outputs": [
        {
          "internalType": "address",
          "name": "",
          "type": "address"
        }
      ],
      "stateMutability": "view",
      "type": "function"
    },
    {
      "inputs": [],
      "name": "getConstants",
      "outputs": [
        {
          "internalType": "uint256",
          "name": "_LTV_PRECISION",
          "type": "uint256"
        },
        {
          "internalType": "uint256",
          "name": "_LIQ_PRECISION",
          "type": "uint256"
        },
        {
          "internalType": "uint256",
          "name": "_UTIL_PREC",
          "type": "uint256"
        },
        {
          "internalType": "uint256",
          "name": "_FEE_PRECISION",
          "type": "uint256"
        },
        {
          "internalType": "uint256",
          "name": "_EXCHANGE_PRECISION",
          "type": "uint256"
        },
        {
          "internalType": "uint64",
          "name": "_DEFAULT_INT",
          "type": "uint64"
        },
        {
          "internalType": "uint256",
          "name": "_MAX_PROTOCOL_FEE",
          "type": "uint256"
        }
      ],
      "stateMutability": "pure",
      "type": "function"
    },
    {
      "inputs": [],
      "name": "getImmutableAddressBool",
      "outputs": [
        {
          "internalType": "address",
          "name": "_rateContract",
          "type": "address"
        },
        {
          "internalType": "address",
          "name": "_DEPLOYER_CONTRACT",
          "type": "address"
        },
        {
          "internalType": "address",
          "name": "_COMPTROLLER_ADDRESS",
          "type": "address"
        },
        {
          "internalType": "bool",
          "name": "_borrowerWhitelistActive",
          "type": "bool"
        },
        {
          "internalType": "bool",
          "name": "_lenderWhitelistActive",
          "type": "bool"
        }
      ],
      "stateMutability": "view",
      "type": "function"
    },
    {
      "inputs": [
        {
          "internalType": "address",
          "name": "_borrower",
          "type": "address"
        }
      ],
      "name": "hasCollateral",
      "outputs": [
        {
          "internalType": "bool",
          "name": "",
          "type": "bool"
        }
      ],
      "stateMutability": "view",
      "type": "function"
    },
    {
      "inputs": [
        {
          "internalType": "address[]",
          "name": "_approvedBorrowers",
          "type": "address[]"
        },
        {
          "internalType": "address[]",
          "name": "_approvedLenders",
          "type": "address[]"
        },
        {
          "internalType": "bytes",
          "name": "_rateInitCallData",
          "type": "bytes"
        }
      ],
      "name": "initialize",
      "outputs": [],
      "stateMutability": "nonpayable",
      "type": "function"
    },
    {
      "inputs": [],
      "name": "isInitialized",
      "outputs": [
        {
          "internalType": "bool",
          "name": "",
          "type": "bool"
        }
      ],
      "stateMutability": "view",
      "type": "function"
    },
    {
      "inputs": [],
      "name": "isPaused",
      "outputs": [
        {
          "internalType": "bool",
          "name": "",
          "type": "bool"
        },
        {
          "internalType": "bool",
          "name": "",
          "type": "bool"
        }
      ],
      "stateMutability": "view",
      "type": "function"
    },
    {
      "inputs": [],
      "name": "lenderWhitelistActive",
      "outputs": [
        {
          "internalType": "bool",
          "name": "",
          "type": "bool"
        }
      ],
      "stateMutability": "view",
      "type": "function"
    },
    {
      "inputs": [
        {
          "internalType": "address",
          "name": "_asset",
          "type": "address"
        },
        {
          "internalType": "uint128",
          "name": "_sharesToLiquidate",
          "type": "uint128"
        },
        {
          "internalType": "address",
          "name": "_collateral",
          "type": "address"
        },
        {
          "internalType": "uint256",
          "name": "_deadline",
          "type": "uint256"
        },
        {
          "internalType": "address",
          "name": "_borrower",
          "type": "address"
        }
      ],
      "name": "liquidate",
      "outputs": [
        {
          "internalType": "uint256",
          "name": "_collateralForLiquidator",
          "type": "uint256"
        }
      ],
      "stateMutability": "nonpayable",
      "type": "function"
    },
    {
      "inputs": [],
      "name": "liquidationFee",
      "outputs": [
        {
          "internalType": "uint256",
          "name": "",
          "type": "uint256"
        }
      ],
      "stateMutability": "view",
      "type": "function"
    },
    {
      "inputs": [],
      "name": "name",
      "outputs": [
        {
          "internalType": "string",
          "name": "",
          "type": "string"
        }
      ],
      "stateMutability": "view",
      "type": "function"
    },
    {
      "inputs": [],
      "name": "owner",
      "outputs": [
        {
          "internalType": "address",
          "name": "",
          "type": "address"
        }
      ],
      "stateMutability": "view",
      "type": "function"
    },
    {
      "inputs": [],
      "name": "pause",
      "outputs": [],
      "stateMutability": "nonpayable",
      "type": "function"
    },
    {
      "inputs": [],
      "name": "paused",
      "outputs": [
        {
          "internalType": "bool",
          "name": "",
          "type": "bool"
        }
      ],
      "stateMutability": "view",
      "type": "function"
    },
    {
      "inputs": [],
      "name": "rateContract",
      "outputs": [
        {
          "internalType": "contract IRateCalculator",
          "name": "",
          "type": "address"
        }
      ],
      "stateMutability": "view",
      "type": "function"
    },
    {
      "inputs": [],
      "name": "rateInitCallData",
      "outputs": [
        {
          "internalType": "bytes",
          "name": "",
          "type": "bytes"
        }
      ],
      "stateMutability": "view",
      "type": "function"
    },
    {
      "inputs": [
        {
          "internalType": "address",
          "name": "token",
          "type": "address"
        },
        {
          "internalType": "uint256",
          "name": "_shares",
          "type": "uint256"
        },
        {
          "internalType": "address",
          "name": "_receiver",
          "type": "address"
        }
      ],
      "name": "redeem",
      "outputs": [
        {
          "internalType": "uint256",
          "name": "_amountToReturn",
          "type": "uint256"
        }
      ],
      "stateMutability": "nonpayable",
      "type": "function"
    },
    {
      "inputs": [
        {
          "internalType": "address",
          "name": "token",
          "type": "address"
        },
        {
          "internalType": "uint256",
          "name": "_collateralAmount",
          "type": "uint256"
        },
        {
          "internalType": "address",
          "name": "_receiver",
          "type": "address"
        }
      ],
      "name": "removeCollateral",
      "outputs": [],
      "stateMutability": "nonpayable",
      "type": "function"
    },
    {
      "inputs": [],
      "name": "renounceOwnership",
      "outputs": [],
      "stateMutability": "nonpayable",
      "type": "function"
    },
    {
      "inputs": [
        {
          "internalType": "address",
          "name": "_asset",
          "type": "address"
        },
        {
          "internalType": "uint256",
          "name": "_shares",
          "type": "uint256"
        },
        {
          "internalType": "address",
          "name": "_borrower",
          "type": "address"
        }
      ],
      "name": "repayAsset",
      "outputs": [
        {
          "internalType": "uint256",
          "name": "_amountToRepay",
          "type": "uint256"
        }
      ],
      "stateMutability": "nonpayable",
      "type": "function"
    },
    {
      "inputs": [
        {
          "internalType": "address[]",
          "name": "_borrowers",
          "type": "address[]"
        },
        {
          "internalType": "bool",
          "name": "_approval",
          "type": "bool"
        }
      ],
      "name": "setApprovedBorrowers",
      "outputs": [],
      "stateMutability": "nonpayable",
      "type": "function"
    },
    {
      "inputs": [
        {
          "internalType": "address[]",
          "name": "_lenders",
          "type": "address[]"
        },
        {
          "internalType": "bool",
          "name": "_approval",
          "type": "bool"
        }
      ],
      "name": "setApprovedLenders",
      "outputs": [],
      "stateMutability": "nonpayable",
      "type": "function"
    },
    {
      "inputs": [
        {
          "internalType": "address",
          "name": "_swapper",
          "type": "address"
        },
        {
          "internalType": "bool",
          "name": "_approval",
          "type": "bool"
        }
      ],
      "name": "setSwapper",
      "outputs": [],
      "stateMutability": "nonpayable",
      "type": "function"
    },
    {
      "inputs": [
        {
          "internalType": "address",
          "name": "_newAddress",
          "type": "address"
        }
      ],
      "name": "setTimeLock",
      "outputs": [],
      "stateMutability": "nonpayable",
      "type": "function"
    },
    {
      "inputs": [
        {
          "internalType": "address",
          "name": "",
          "type": "address"
        }
      ],
      "name": "swappers",
      "outputs": [
        {
          "internalType": "bool",
          "name": "",
          "type": "bool"
        }
      ],
      "stateMutability": "view",
      "type": "function"
    },
    {
      "inputs": [
        {
          "internalType": "address",
          "name": "_asset",
          "type": "address"
        },
        {
          "internalType": "uint256",
          "name": "_shares",
          "type": "uint256"
        },
        {
          "internalType": "bool",
          "name": "_roundUp",
          "type": "bool"
        }
      ],
      "name": "toAssetAmount",
      "outputs": [
        {
          "internalType": "uint256",
          "name": "",
          "type": "uint256"
        }
      ],
      "stateMutability": "view",
      "type": "function"
    },
    {
      "inputs": [
        {
          "internalType": "address",
          "name": "_asset",
          "type": "address"
        },
        {
          "internalType": "uint256",
          "name": "_amount",
          "type": "uint256"
        },
        {
          "internalType": "bool",
          "name": "_roundUp",
          "type": "bool"
        }
      ],
      "name": "toAssetShares",
      "outputs": [
        {
          "internalType": "uint256",
          "name": "",
          "type": "uint256"
        }
      ],
      "stateMutability": "view",
      "type": "function"
    },
    {
      "inputs": [
        {
          "internalType": "address",
          "name": "_asset",
          "type": "address"
        },
        {
          "internalType": "uint256",
          "name": "_shares",
          "type": "uint256"
        },
        {
          "internalType": "bool",
          "name": "_roundUp",
          "type": "bool"
        }
      ],
      "name": "toBorrowAmount",
      "outputs": [
        {
          "internalType": "uint256",
          "name": "",
          "type": "uint256"
        }
      ],
      "stateMutability": "view",
      "type": "function"
    },
    {
      "inputs": [
        {
          "internalType": "address",
          "name": "_asset",
          "type": "address"
        },
        {
          "internalType": "uint256",
          "name": "_amount",
          "type": "uint256"
        },
        {
          "internalType": "bool",
          "name": "_roundUp",
          "type": "bool"
        }
      ],
      "name": "toBorrowShares",
      "outputs": [
        {
          "internalType": "uint256",
          "name": "",
          "type": "uint256"
        }
      ],
      "stateMutability": "view",
      "type": "function"
    },
    {
      "inputs": [
        {
          "components": [
            {
              "internalType": "contract IERC20",
              "name": "token",
              "type": "address"
            },
            {
              "internalType": "uint8",
              "name": "tokenDecimals",
              "type": "uint8"
            },
            {
              "internalType": "contract AggregatorV3Interface",
              "name": "oracle",
              "type": "address"
            },
            {
              "internalType": "uint8",
              "name": "oracleDecimals",
              "type": "uint8"
            },
            {
              "internalType": "uint256",
              "name": "ltv",
              "type": "uint256"
            },
            {
              "internalType": "uint256",
              "name": "total",
              "type": "uint256"
            }
          ],
          "internalType": "struct IFraxlendPairCore.Collateral",
          "name": "token",
          "type": "tuple"
        },
        {
          "internalType": "uint256",
          "name": "amount",
          "type": "uint256"
        }
      ],
      "name": "tokenValue",
      "outputs": [
        {
          "internalType": "uint256",
          "name": "value",
          "type": "uint256"
        }
      ],
      "stateMutability": "view",
      "type": "function"
    },
    {
      "inputs": [
        {
          "components": [
            {
              "internalType": "contract IERC20",
              "name": "token",
              "type": "address"
            },
            {
              "internalType": "uint8",
              "name": "tokenDecimals",
              "type": "uint8"
            },
            {
              "internalType": "contract AggregatorV3Interface",
              "name": "oracle",
              "type": "address"
            },
            {
              "internalType": "uint8",
              "name": "oracleDecimals",
              "type": "uint8"
            },
            {
              "components": [
                {
                  "internalType": "uint128",
                  "name": "amount",
                  "type": "uint128"
                },
                {
                  "internalType": "uint128",
                  "name": "shares",
                  "type": "uint128"
                }
              ],
              "internalType": "struct VaultAccount",
              "name": "totalAsset",
              "type": "tuple"
            },
            {
              "components": [
                {
                  "internalType": "uint128",
                  "name": "amount",
                  "type": "uint128"
                },
                {
                  "internalType": "uint128",
                  "name": "shares",
                  "type": "uint128"
                }
              ],
              "internalType": "struct VaultAccount",
              "name": "totalBorrow",
              "type": "tuple"
            },
            {
              "internalType": "contract IFToken",
              "name": "fToken",
              "type": "address"
            },
            {
              "components": [
                {
                  "internalType": "uint64",
                  "name": "lastBlock",
                  "type": "uint64"
                },
                {
                  "internalType": "uint64",
                  "name": "feeToProtocolRate",
                  "type": "uint64"
                },
                {
                  "internalType": "uint64",
                  "name": "lastTimestamp",
                  "type": "uint64"
                },
                {
                  "internalType": "uint64",
                  "name": "ratePerSec",
                  "type": "uint64"
                }
              ],
              "internalType": "struct IFraxlendPairCore.CurrentRateInfo",
              "name": "currentRateInfo",
              "type": "tuple"
            }
          ],
          "internalType": "struct IFraxlendPairCore.Asset",
          "name": "token",
          "type": "tuple"
        },
        {
          "internalType": "uint256",
          "name": "amount",
          "type": "uint256"
        }
      ],
      "name": "tokenValue",
      "outputs": [
        {
          "internalType": "uint256",
          "name": "value",
          "type": "uint256"
        }
      ],
      "stateMutability": "view",
      "type": "function"
    },
    {
      "inputs": [
        {
          "internalType": "address",
          "name": "_borrower",
          "type": "address"
        }
      ],
      "name": "totalBorrowedValue",
      "outputs": [
        {
          "internalType": "uint256",
          "name": "requiredValue",
          "type": "uint256"
        }
      ],
      "stateMutability": "view",
      "type": "function"
    },
    {
      "inputs": [
        {
          "internalType": "address",
          "name": "newOwner",
          "type": "address"
        }
      ],
      "name": "transferOwnership",
      "outputs": [],
      "stateMutability": "nonpayable",
      "type": "function"
    },
    {
      "inputs": [],
      "name": "unpause",
      "outputs": [],
      "stateMutability": "nonpayable",
      "type": "function"
    },
    {
      "inputs": [
        {
          "internalType": "address",
          "name": "",
          "type": "address"
        },
        {
          "internalType": "address",
          "name": "",
          "type": "address"
        }
      ],
      "name": "userBorrowShares",
      "outputs": [
        {
          "internalType": "uint256",
          "name": "",
          "type": "uint256"
        }
      ],
      "stateMutability": "view",
      "type": "function"
    },
    {
      "inputs": [
        {
          "internalType": "address",
          "name": "",
          "type": "address"
        },
        {
          "internalType": "address",
          "name": "",
          "type": "address"
        }
      ],
      "name": "userCollateralBalance",
      "outputs": [
        {
          "internalType": "uint256",
          "name": "",
          "type": "uint256"
        }
      ],
      "stateMutability": "view",
      "type": "function"
    },
    {
      "inputs": [],
      "name": "version",
      "outputs": [
        {
          "internalType": "string",
          "name": "",
          "type": "string"
        }
      ],
      "stateMutability": "view",
      "type": "function"
    },
    {
      "inputs": [
        {
          "internalType": "address",
          "name": "_asset",
          "type": "address"
        },
        {
          "internalType": "uint128",
          "name": "_shares",
          "type": "uint128"
        },
        {
          "internalType": "address",
          "name": "_recipient",
          "type": "address"
        }
      ],
      "name": "withdrawFees",
      "outputs": [
        {
          "internalType": "uint256",
          "name": "_amountToTransfer",
          "type": "uint256"
        }
      ],
      "stateMutability": "nonpayable",
      "type": "function"
    }
  ],
  "bytecode": "0x6101a06040526005610160908152640312e302e360dc1b6101805260029062000029908262000355565b503480156200003757600080fd5b5060405162006372380380620063728339810160408190526200005a916200051e565b87878787878787876200006d336200017f565b6000805460ff60a01b191681556001805584518190819081906200009b9089016020908101908a0162000607565b6001600160a01b0384811660c05283811660e05282811661010052600b80546001600160a01b03191691831691909117905592965090945092509050620000e284620001cf565b5050506080849052506001600160a01b0386811660a052821515610120528115156101405260108054610100600160a81b0319166101008a841602179055601180546001600160a01b03191691871691909117905587516000036200015a57604051631ff3ed9d60e01b815260040160405180910390fd5b600c62000168898262000355565b50505050505050505050505050505050506200066f565b600080546001600160a01b038381166001600160a01b0319831681178455604051919092169283917f8be0079c531659141344cd1fd0a4f28419497f9722a3daafe3b4186f6b6457e09190a35050565b620001d962000252565b6001600160a01b038116620002445760405162461bcd60e51b815260206004820152602660248201527f4f776e61626c653a206e6577206f776e657220697320746865207a65726f206160448201526564647265737360d01b60648201526084015b60405180910390fd5b6200024f816200017f565b50565b6000546001600160a01b03163314620002ae5760405162461bcd60e51b815260206004820181905260248201527f4f776e61626c653a2063616c6c6572206973206e6f7420746865206f776e657260448201526064016200023b565b565b634e487b7160e01b600052604160045260246000fd5b600181811c90821680620002db57607f821691505b602082108103620002fc57634e487b7160e01b600052602260045260246000fd5b50919050565b601f8211156200035057600081815260208120601f850160051c810160208610156200032b5750805b601f850160051c820191505b818110156200034c5782815560010162000337565b5050505b505050565b81516001600160401b03811115620003715762000371620002b0565b6200038981620003828454620002c6565b8462000302565b602080601f831160018114620003c15760008415620003a85750858301515b600019600386901b1c1916600185901b1785556200034c565b600085815260208120601f198616915b82811015620003f257888601518255948401946001909101908401620003d1565b5085821015620004115787850151600019600388901b60f8161c191681555b5050505050600190811b01905550565b60006001600160401b03808411156200043e576200043e620002b0565b604051601f8501601f19908116603f01168101908282118183101715620004695762000469620002b0565b816040528093508581528686860111156200048357600080fd5b600092505b85831015620004a857828501516020848301015260208301925062000488565b6000602087830101525050509392505050565b6001600160a01b03811681146200024f57600080fd5b8051620004de81620004bb565b919050565b600082601f830112620004f557600080fd5b620005068383516020850162000421565b9392505050565b80518015158114620004de57600080fd5b600080600080600080600080610100898b0312156200053c57600080fd5b88516001600160401b03808211156200055457600080fd5b818b0191508b601f8301126200056957600080fd5b6200057a8c83516020850162000421565b99506200058a60208c01620004d1565b98506200059a60408c01620004d1565b9750620005aa60608c01620004d1565b965060808b0151915080821115620005c157600080fd5b50620005d08b828c01620004e3565b94505060a08901519250620005e860c08a016200050d565b9150620005f860e08a016200050d565b90509295985092959890939650565b600080600080608085870312156200061e57600080fd5b84516200062b81620004bb565b60208601519094506200063e81620004bb565b60408601519093506200065181620004bb565b60608601519092506200066481620004bb565b939692955090935050565b60805160a05160c05160e051610100516101205161014051615c2a620007486000396000818161052c015281816105d3015281816113ea015281816125be01526133840152600081816104230152818161050401528181611fd501526122780152600081816104db01528181610b6d0152818161160001526121290152600081816107f301526120f50152600081816104b301528181610935015281816121750152612ef301526000818161048e01528181610a290152818161307a0152613a770152600081816107cc0152612a930152615c2a6000f3fe608060405234801561001057600080fd5b50600436106103a35760003560e01c80638178a4d7116101e9578063c7be97861161010f578063e1c9d4ca116100ad578063f2fde38b1161007c578063f2fde38b14610b42578063f45346dc14610b55578063fbaa8b8514610b68578063fbbbf94c14610b8f57600080fd5b8063e1c9d4ca14610978578063eeb97d3b1461098b578063eee2421914610a24578063f11b818814610a4b57600080fd5b8063ccad1191116100e9578063ccad11911461091d578063d2a156e014610930578063d9bb296014610957578063db46f7021461096557600080fd5b8063c7be9786146108df578063c8f45ce7146108e7578063c936c624146108fa57600080fd5b8063ad0c3bb511610187578063b37c551511610156578063b37c55151461086a578063b38988f71461087d578063bd5031b414610890578063c3b04768146108a357600080fd5b8063ad0c3bb5146107ee578063afa85de614610815578063b054898b14610838578063b187bd261461084b57600080fd5b80638cad7fbe116101c35780638cad7fbe1461074b5780638da5cb5b1461076e5780639a295e731461077f578063a36a3630146107c757600080fd5b80638178a4d7146107055780638456cb5914610730578063891682d21461073857600080fd5b80634962e494116102ce5780636a7cedd21161026c57806371e85c411161023b57806371e85c41146106b957806376111e85146106cc5780637c35369a146106df5780637e0ea855146106f257600080fd5b80636a7cedd2146106785780636d785a871461068b5780636dc218321461069e578063715018a6146106b157600080fd5b80635c833bfd116102a85780635c833bfd146106105780635c975abb14610623578063657a409c1461063557806367f8fc0f1461066057600080fd5b80634962e494146105ce578063503b7cb2146105f557806354fd4d501461060857600080fd5b806336fad62d116103465780633f2617cb116103155780633f2617cb1461058d5780633f4ba83a146105a05780633f5e4441146105a857806341619fb1146105bb57600080fd5b806336fad62d146104805780633879b0c51461055a578063392e53cd1461056d5780633cc32aba1461057a57600080fd5b8063098434c611610382578063098434c6146103f65780630ae0eb451461040b5780632165d72f1461041e5780632ac7ce301461045557600080fd5b8062873e4d146103a8578063038c525f146103ce57806306fdde03146103e1575b600080fd5b6103bb6103b6366004614d1e565b610bd6565b6040519081526020015b60405180910390f35b6103bb6103dc366004614d49565b610db5565b6103e9610e0e565b6040516103c59190614ddb565b610409610404366004614dee565b610e9c565b005b6103bb610419366004614d49565b611323565b6104457f000000000000000000000000000000000000000000000000000000000000000081565b60405190151581526020016103c5565b6103bb610463366004614e2e565b600360209081526000928352604080842090915290825290205481565b604080516001600160a01b037f0000000000000000000000000000000000000000000000000000000000000000811682527f0000000000000000000000000000000000000000000000000000000000000000811660208301527f000000000000000000000000000000000000000000000000000000000000000016918101919091527f0000000000000000000000000000000000000000000000000000000000000000151560608201527f00000000000000000000000000000000000000000000000000000000000000001515608082015260a0016103c5565b610409610568366004614e67565b611372565b6010546104459060ff1681565b610409610588366004614ee9565b6113e7565b61040961059b366004614f34565b61158a565b6104096115f5565b6103bb6105b6366004614d49565b611669565b6103bb6105c9366004615089565b6116b8565b6104457f000000000000000000000000000000000000000000000000000000000000000081565b6104096106033660046150d7565b611781565b6103e9611955565b6103bb61061e366004614e67565b611962565b600054600160a01b900460ff16610445565b600b54610648906001600160a01b031681565b6040516001600160a01b0390911681526020016103c5565b6010546106489061010090046001600160a01b031681565b6103bb610686366004614d1e565b611a10565b601154610648906001600160a01b031681565b6103bb6106ac36600461518c565b611b2d565b610409611e2c565b6106486106c73660046151ba565b611e3e565b6103bb6106da366004614e67565b611e68565b6103bb6106ed3660046151d3565b611f5c565b6103bb610700366004614d49565b61209b565b6103bb610713366004614e2e565b600460209081526000928352604080842090915290825290205481565b6104096120ea565b610409610746366004614d1e565b6121e2565b610445610759366004614d1e565b600a6020526000908152604090205460ff1681565b6000546001600160a01b0316610648565b60408051620186a0808252602082018190529181018290526060810191909152670de0b6b3a7640000608082015263096ba6c460a082015261c35060c082015260e0016103c5565b6103bb7f000000000000000000000000000000000000000000000000000000000000000081565b6106487f000000000000000000000000000000000000000000000000000000000000000081565b610445610823366004614d1e565b600f6020526000908152604090205460ff1681565b610409610846366004614ee9565b612276565b6108536123f4565b6040805192151583529015156020830152016103c5565b610409610878366004614e67565b61247c565b61044561088b366004614d1e565b6124b8565b6103bb61089e366004615232565b612545565b6108b66108b1366004614d1e565b612c20565b604080519485526020850193909352918301526001600160401b031660608201526080016103c5565b6103e9612c69565b6104096108f5366004615417565b612c76565b610445610908366004614d1e565b600e6020526000908152604090205460ff1681565b61040961092b3660046154a5565b612ee8565b6106487f000000000000000000000000000000000000000000000000000000000000000081565b6103bb6105c936600461556a565b6106486109733660046151ba565b61310f565b610409610986366004615597565b61311f565b6109e2610999366004614d1e565b60066020526000908152604090208054600182015460028301546003909301546001600160a01b038084169460ff600160a01b9586900481169592851694929092049091169186565b604080516001600160a01b03978816815260ff9687166020820152969094169386019390935292166060840152608083019190915260a082015260c0016103c5565b6106487f000000000000000000000000000000000000000000000000000000000000000081565b610b2e610a59366004614d1e565b600860209081526000918252604091829020805460018201548451808601865260028401546001600160801b038082168352600160801b9182900481168388015287518089018952600387015480831682528390049091168188015260048601548851608081018a526005909701546001600160401b038082168952600160401b8204811699890199909952928304881698870198909852600160c01b90910490951660608501526001600160a01b038084169660ff600160a01b958690048116978584169796909504169492939291169088565b6040516103c59897969594939291906155ce565b610409610b50366004614d1e565b613292565b6103bb610b63366004614e67565b61330b565b6106487f000000000000000000000000000000000000000000000000000000000000000081565b600d54610bb29063ffffffff81169064010000000090046001600160e01b031682565b6040805163ffffffff90931683526001600160e01b039091166020830152016103c5565b6000805b60075460ff82161015610daf5760006008600060078460ff1681548110610c0357610c0361568b565b60009182526020808320909101546001600160a01b039081168452838201949094526040928301822080548516835260038252838320948916835293905220549091508015610d9a576040805180820190915260038301546001600160801b038082168352600160801b909104166020820152600090610c8590836001613488565b604080516101008101825285546001600160a01b03808216835260ff600160a01b92839004811660208086019190915260018a01548084168688015293909304166060808501919091528451808601865260028a01546001600160801b038082168352600160801b918290048116838701526080808801939093528751808901895260038d015480831682528390049091168187015260a087015260048b015490931660c08601528551908101865260058a01546001600160401b038082168352600160401b8204811695830195909552928304841695810195909552600160c01b9091049091169083015260e0810191909152909150600090610d8990836116b8565b9050610d9581876156b7565b955050505b50508080610da7906156ca565b915050610bda565b50919050565b6001600160a01b03831660009081526008602090815260408083208151808301909252600201546001600160801b038082168352600160801b9091041691810191909152610e0490848461351c565b90505b9392505050565b600c8054610e1b906156e9565b80601f0160208091040260200160405190810160405280929190818152602001828054610e47906156e9565b8015610e945780601f10610e6957610100808354040283529160200191610e94565b820191906000526020600020905b815481529060010190602001808311610e7757829003601f168201915b505050505081565b610ea5826124b8565b15610ec35760405163160738b760e01b815260040160405180910390fd5b6001600160a01b0380841660008181526003602090815260408083209487168352938152838220549282526008905291822090919082906001600160801b038216156112c0576004818101546040516370a0823160e01b81526001600160a01b0388811693820193909352600092909116906370a08231906024016020604051808303816000875af1158015610f5d573d6000803e3d6000fd5b505050506040513d601f19601f82011682018060405250810190610f81919061571d565b6040805180820190915260028401546001600160801b038082168352600160801b909104166020820152909150600090610fbd90836001613488565b6002840180549192508391601090610fe6908490600160801b90046001600160801b0316615736565b92506101000a8154816001600160801b0302191690836001600160801b03160217905550808360020160000160008282829054906101000a90046001600160801b03166110339190615736565b82546101009290920a6001600160801b038181021990931691831602179091556040805180820190915260038601548083168252600160801b90048216602082015261108c92506110879189166000613488565b613591565b60028401805491965086916000906110ae9084906001600160801b0316615736565b82546101009290920a6001600160801b038181021990931691831602179091556001600160a01b038b81166000908152600360208181526040808420948f1684529390529181208190559086018054899450909261110e91859116615736565b92506101000a8154816001600160801b0302191690836001600160801b03160217905550858360030160000160108282829054906101000a90046001600160801b031661115b9190615736565b82546101009290920a6001600160801b038181021990931691831602179091556040805180820190915260028601548083168252600160801b90049091166020820152600091506111ae9083600161351c565b60028501805491925083916000906111d09084906001600160801b031661575d565b92506101000a8154816001600160801b0302191690836001600160801b03160217905550808460020160000160108282829054906101000a90046001600160801b031661121d919061575d565b92506101000a8154816001600160801b0302191690836001600160801b031602179055506000838261124f919061577d565b6004868101546040516340c10f1960e01b81526001600160a01b038d8116938201939093526024810184905292935016906340c10f1990604401600060405180830381600087803b1580156112a357600080fd5b505af11580156112b7573d6000803e3d6000fd5b50505050505050505b604080516001600160a01b038981168252881660208201526001600160801b03868116828401528516606082015290517f3355888071037a91d0cc438d2c26cbe8a7915ff7e424657644bcda1d47f1d2ac9181900360800190a150505050505050565b6001600160a01b03831660009081526008602090815260408083208151808301909252600301546001600160801b038082168352600160801b9091041691810191909152610e0490848461351c565b60026001540361139d5760405162461bcd60e51b815260040161139490615790565b60405180910390fd5b6002600155336113ab6135fe565b6113b784848433613652565b6113c081613777565b6113dd57604051631f84400760e31b815260040160405180910390fd5b5050600180555050565b337f000000000000000000000000000000000000000000000000000000000000000080156114485750336000908152600f602052604090205460ff16158061144857506001600160a01b0381166000908152600f602052604090205460ff16155b15611466576040516395a584f760e01b815260040160405180910390fd5b60005b838110156115835782806114ac57503385858381811061148b5761148b61568b565b90506020020160208101906114a09190614d1e565b6001600160a01b031614155b156115715782600f60008787858181106114c8576114c861568b565b90506020020160208101906114dd9190614d1e565b6001600160a01b031681526020810191909152604001600020805460ff19169115159190911790558484828181106115175761151761568b565b905060200201602081019061152c9190614d1e565b6001600160a01b03167f3bb51c63bf139c4bc98211d74c51aafae8b743fd3090bee8b6bfe2026678a25084604051611568911515815260200190565b60405180910390a25b8061157b816157c7565b915050611469565b5050505050565b611592613793565b6001600160a01b0382166000818152600a6020908152604091829020805460ff19168515159081179091558251938452908301527fea1eefb4fd58778d7b274fe54045a9feeec8f2847899c2e71126d3a74d486da5910160405180910390a15050565b336001600160a01b037f0000000000000000000000000000000000000000000000000000000000000000161480159061163957506000546001600160a01b03163314155b1561165757604051638f5b12a760e01b815260040160405180910390fd5b61165f6135fe565b6116676137ed565b565b6001600160a01b03831660009081526008602090815260408083208151808301909252600201546001600160801b038082168352600160801b9091041691810191909152610e04908484613488565b60008083604001516001600160a01b031663feaf968c6040518163ffffffff1660e01b815260040160a060405180830381865afa1580156116fd573d6000803e3d6000fd5b505050506040513d601f19601f8201168201806040525081019061172191906157fa565b505050915050670de0b6b3a7640000846060015185602001516024611746919061584a565b611750919061584a565b61175b90600a615947565b6117658386615956565b61176f9190615956565b6117799190615975565b949350505050565b60105461010090046001600160a01b031633146117b1576040516336d780fd60e21b815260040160405180910390fd5b60105460ff16156117d45760405162dc149f60e41b815260040160405180910390fd5b60005b81518110156119515760008282815181106117f4576117f461568b565b60200260200101519050600081600001519050620186a08260800151111561183757816080015160405163068eb53760e01b815260040161139491815260200190565b6001600160a01b03818116600090815260066020526040902054161561187b576040516308ab912560e21b81526001600160a01b0382166004820152602401611394565b6005805460018082019092557f036b6384b5eca791c62761152d0c79bb0604c104a5fb6f4eb0703f3154bb3db00180546001600160a01b0319166001600160a01b0393841690811790915560009081526006602090815260409182902085518154928701519086166001600160a81b031993841617600160a01b60ff92831681029190911783559387015194820180546060890151969097169690931695909517939094169091029190911790556080820151600282015560a09091015160039091015580611949816157c7565b9150506117d7565b5050565b60028054610e1b906156e9565b60006002600154036119865760405162461bcd60e51b815260040161139490615790565b600260015561199484613842565b505050506001600160a01b03841660009081526008602090815260408083208151808301909252600201546001600160801b038082168352600160801b90910416918101919091526119e7918590613488565b9050611a05846119f683613591565b6119ff86613591565b85613e24565b600180559392505050565b6000805b60055460ff82161015610daf5760006006600060058460ff1681548110611a3d57611a3d61568b565b60009182526020808320909101546001600160a01b039081168452838201949094526040928301822080548516835260048252838320948916835293905220549091508015611b18576040805160c08101825283546001600160a01b03808216835260ff600160a01b928390048116602085015260018701549182169484019490945204909116606082015260028301546080820152600383015460a0820152600090611aea90836116b8565b9050620186a0836002015482611b009190615956565b611b0a9190615975565b611b1490866156b7565b9450505b50508080611b25906156ca565b915050611a14565b6000611b37613793565b6001600160a01b0380851660009081526008602090815260408083208151610100810183528154808716825260ff600160a01b9182900481168387015260018401548089168487015291909104166060808301919091528351808501855260028401546001600160801b038082168352600160801b91829004811683890152608080860193845287518089018952600388015480841682528490048316818b015260a087019081526004880154909b1660c0870152875190810188526005909601546001600160401b038082168852600160401b8204811699880199909952918204881696860196909652600160c01b90049095169083015260e0810191909152915193519193929087169003611cbb5760c08301516040516370a0823160e01b81523060048201526001600160a01b03909116906370a08231906024016020604051808303816000875af1158015611c94573d6000803e3d6000fd5b505050506040513d601f19601f82011682018060405250810190611cb8919061571d565b95505b611cd0826001600160801b0388166001613488565b93506000611cde8383614090565b905084811015611d0b576040516362ddb6d760e11b81526004810182905260248101869052604401611394565b8483600001818151611d1d9190615736565b6001600160801b0316905250602083018051889190611d3d908390615736565b6001600160801b0390811690915260c0860151604051630852cd8d60e31b8152918a1660048301526001600160a01b031691506342966c6890602401600060405180830381600087803b158015611d9357600080fd5b505af1158015611da7573d6000803e3d6000fd5b50505050608084018390528351611dc8906001600160a01b031687876140b2565b604080516001600160a01b038a811682526001600160801b038a1660208301528816818301526060810187905290517fa1e6e085b3cf9fdebca533bd01f8ab59624d2c1b8a548b16a636ae4a9a6b0f9b9181900360800190a1505050509392505050565b611e34613793565b61166760006140c2565b60078181548110611e4e57600080fd5b6000918252602090912001546001600160a01b0316905081565b6000600260015403611e8c5760405162461bcd60e51b815260040161139490615790565b60026001556001600160a01b03808516600090815260086020526040902054859116611ed65760405163961c9a4f60e01b81526001600160a01b0382166004820152602401611394565b611edf85613842565b5050506001600160a01b0386166000908152600860209081526040918290208251808401909352600301546001600160801b038082168452600160801b9091041690820152611f319150856001613488565b9150611f5085611f4084613591565b611f4987613591565b3387614112565b50600180559392505050565b6000806000611f696123f4565b915091508115611f8c5760405163fb4b701160e01b815260040160405180910390fd5b8015611fab5760405163ace7fd5560e01b815260040160405180910390fd5b600260015403611fcd5760405162461bcd60e51b815260040161139490615790565b6002600155337f000000000000000000000000000000000000000000000000000000000000000080156120105750336000908152600e602052604090205460ff16155b1561202e576040516342f41ddd60e11b815260040160405180910390fd5b61203789613842565b505050506000861115612050576120508733883361428d565b6120638961205d8a613591565b876143a5565b935061206e81613777565b61208b57604051631f84400760e31b815260040160405180910390fd5b5050600180555095945050505050565b6001600160a01b03831660009081526008602090815260408083208151808301909252600301546001600160801b038082168352600160801b9091041691810191909152610e04908484613488565b336001600160a01b037f0000000000000000000000000000000000000000000000000000000000000000161480159061214c5750336001600160a01b037f00000000000000000000000000000000000000000000000000000000000000001614155b801561216357506000546001600160a01b03163314155b80156121985750336001600160a01b037f00000000000000000000000000000000000000000000000000000000000000001614155b80156121b4575060105461010090046001600160a01b03163314155b156121d257604051638f5b12a760e01b815260040160405180910390fd5b6121da6135fe565b61166761468b565b600b546001600160a01b0316331461220d57604051633b6b86b160e01b815260040160405180910390fd5b600b54604080516001600160a01b03928316815291831660208301527f582d6cc2f042c43e00e0dd5c187f575daac294216d2afa075d9e1e27b0a40a94910160405180910390a1600b80546001600160a01b0319166001600160a01b0392909216919091179055565b7f000000000000000000000000000000000000000000000000000000000000000080156122b35750336000908152600e602052604090205460ff16155b156122d1576040516342f41ddd60e11b815260040160405180910390fd5b60005b828110156123ee5781806123175750338484838181106122f6576122f661568b565b905060200201602081019061230b9190614d1e565b6001600160a01b031614155b156123dc5781600e60008686858181106123335761233361568b565b90506020020160208101906123489190614d1e565b6001600160a01b031681526020810191909152604001600020805460ff19169115159190911790558383828181106123825761238261568b565b90506020020160208101906123979190614d1e565b6001600160a01b03167f9c798cce2c4fdbec95a1a6dbba64db726912274dac938f44e36bce9b779cfee8836040516123d3911515815260200190565b60405180910390a25b806123e6816157c7565b9150506122d4565b50505050565b600080548190600160a01b900460ff16601054604051639c5451b960e01b81523060048201526101009091046001600160a01b031690639c5451b990602401602060405180830381865afa158015612450573d6000803e3d6000fd5b505050506040513d601f19601f820116820180604052508101906124749190615997565b915091509091565b60026001540361249e5760405162461bcd60e51b815260040161139490615790565b60026001556124af8333848461428d565b50506001805550565b6000805b60055460ff8216101561253c57600060058260ff16815481106124e1576124e161568b565b60009182526020808320909101546001600160a01b0390811680845260048352604080852092891685529190925290912054909150801561252757506001949350505050565b50508080612534906156ca565b9150506124bc565b50600092915050565b60008060006125526123f4565b9150915081156125755760405163fb4b701160e01b815260040160405180910390fd5b80156125945760405163ace7fd5560e01b815260040160405180910390fd5b6002600154036125b65760405162461bcd60e51b815260040161139490615790565b6002600155337f0000000000000000000000000000000000000000000000000000000000000000801561261c5750336000908152600f602052604090205460ff16158061261c57506001600160a01b0381166000908152600f602052604090205460ff16155b1561263a576040516395a584f760e01b815260040160405180910390fd5b8542111561266457604051635ba2a8d560e01b815242600482015260248101879052604401611394565b61266d89613842565b5050505061267a85613777565b1561269857604051633af2cafd60e11b815260040160405180910390fd5b6000600860008b6001600160a01b03166001600160a01b03168152602001908152602001600020604051806101000160405290816000820160009054906101000a90046001600160a01b03166001600160a01b03166001600160a01b031681526020016000820160149054906101000a900460ff1660ff1660ff1681526020016001820160009054906101000a90046001600160a01b03166001600160a01b03166001600160a01b031681526020016001820160149054906101000a900460ff1660ff1660ff168152602001600282016040518060400160405290816000820160009054906101000a90046001600160801b03166001600160801b03166001600160801b031681526020016000820160109054906101000a90046001600160801b03166001600160801b03166001600160801b0316815250508152602001600382016040518060400160405290816000820160009054906101000a90046001600160801b03166001600160801b03166001600160801b031681526020016000820160109054906101000a90046001600160801b03166001600160801b03166001600160801b03168152505081526020016004820160009054906101000a90046001600160a01b03166001600160a01b03166001600160a01b03168152602001600582016040518060800160405290816000820160009054906101000a90046001600160401b03166001600160401b03166001600160401b031681526020016000820160089054906101000a90046001600160401b03166001600160401b03166001600160401b031681526020016000820160109054906101000a90046001600160401b03166001600160401b03166001600160401b031681526020016000820160189054906101000a90046001600160401b03166001600160401b03166001600160401b0316815250508152505090506000600660008a6001600160a01b03166001600160a01b031681526020019081526020016000206040518060c00160405290816000820160009054906101000a90046001600160a01b03166001600160a01b03166001600160a01b031681526020016000820160149054906101000a900460ff1660ff1660ff1681526020016001820160009054906101000a90046001600160a01b03166001600160a01b03166001600160a01b031681526020016001820160149054906101000a900460ff1660ff1660ff168152602001600282015481526020016003820154815250509050600080612a3d83670de0b6b3a76400006116b8565b612a4f85670de0b6b3a76400006116b8565b612a728e6001600160801b031660008860a001516134889092919063ffffffff16565b612a7c9190615956565b612a869190615975565b90506000620186a0612ab87f0000000000000000000000000000000000000000000000000000000000000000826156b7565b612ac29084615956565b612acc9190615975565b9050612ad7816146ce565b6001600160a01b03808e166000908152600460209081526040808320938f1683529290522054612b06906146ce565b612b1091906159b4565b92506000831315612b215780612b48565b6001600160a01b03808d166000908152600460209081526040808320938e16835292905220545b985050506000612b746110878d6001600160801b031660018760a001516134889092919063ffffffff16565b9050886001600160a01b03167ff0d9668af5c7187ae8890d7b2b7d7437b2d3b070e24a84d05d54a76c89ac182f8e8e8e8c86604051612bea9594939291906001600160a01b0395861681526001600160801b03948516602082015292909416604083015260608201529116608082015260a00190565b60405180910390a2612bff8d828e338d614112565b612c0b8b89338c613652565b50506001805550939998505050505050505050565b600080600080600260015403612c485760405162461bcd60e51b815260040161139490615790565b6002600155612c5685613842565b6001805592989197509550909350915050565b60098054610e1b906156e9565b60105461010090046001600160a01b03163314612ca6576040516336d780fd60e21b815260040160405180910390fd5b60105460ff1615612cc95760405162dc149f60e41b815260040160405180910390fd5b60005b8151811015611951576000828281518110612ce957612ce961568b565b602090810291909101810151516001600160a01b03808216600090815260089093526040909220549092501615612d3e576040516308ab912560e21b81526001600160a01b0382166004820152602401611394565b600780546001810182556000919091527fa66cc928b5edb82af9bd49922954155ab7b0942694bea4ce44661d9a8736c6880180546001600160a01b0319166001600160a01b0383161790558251839083908110612d9d57612d9d61568b565b6020908102919091018101516001600160a01b0392831660009081526008835260409081902082518154848601519187166001600160a81b031991821617600160a01b60ff9384168102919091178455848601516001850180546060808a0151938c169190951617919094169091021790915560808401518051908601516001600160801b03918216600160801b918316820217600285015560a0860151805190880151908316908316820217600385015560c08601516004850180546001600160a01b031916919099161790975560e090940151805160059093018054968201519482015191909201516001600160401b039384166001600160801b031990971696909617600160401b94841694909402939093179093169181169094026001600160c01b031617600160c01b939092169290920217905580612ee0816157c7565b915050612ccc565b336001600160a01b037f00000000000000000000000000000000000000000000000000000000000000001614612f3157604051638b906c9760e01b815260040160405180910390fd5b60105460ff1615612f545760405162dc149f60e41b815260040160405180910390fd5b6007541580612f635750600554155b15612f8157604051632b88865b60e01b815260040160405180910390fd5b60005b85811015612ff1576001600e6000898985818110612fa457612fa461568b565b9050602002016020810190612fb99190614d1e565b6001600160a01b031681526020810191909152604001600020805460ff1916911515919091179055612fea816157c7565b9050612f84565b5060005b83811015613062576001600f60008787858181106130155761301561568b565b905060200201602081019061302a9190614d1e565b6001600160a01b031681526020810191909152604001600020805460ff191691151591909117905561305b816157c7565b9050612ff5565b5060405163453f31d560e01b81526001600160a01b037f0000000000000000000000000000000000000000000000000000000000000000169063453f31d5906130b190859085906004016159d4565b60006040518083038186803b1580156130c957600080fd5b505afa1580156130dd573d6000803e3d6000fd5b50600992506130f191508390508483615a51565b506130fa6135fe565b50506010805460ff1916600117905550505050565b60058181548110611e4e57600080fd5b60008061312a6123f4565b91509150811561314d5760405163fb4b701160e01b815260040160405180910390fd5b801561316c5760405163ace7fd5560e01b815260040160405180910390fd5b6001600160a01b038085166000908152600860205260409020548591166131b15760405163961c9a4f60e01b81526001600160a01b0382166004820152602401611394565b600b546001600160a01b031633146131dc57604051633b6b86b160e01b815260040160405180910390fd5b61c3508463ffffffff1611156132055760405163da0afa5760e01b815260040160405180910390fd5b61320e85613842565b505050506001600160a01b03851660009081526008602090815260409182902060050180546fffffffffffffffff0000000000000000191663ffffffff8816600160401b81029190911790915591519182527f58a58c712558f3d6e20bed57421eb8f73048d881dea9e5bb80efb37c49680d1c910160405180910390a15050505050565b61329a613793565b6001600160a01b0381166132ff5760405162461bcd60e51b815260206004820152602660248201527f4f776e61626c653a206e6577206f776e657220697320746865207a65726f206160448201526564647265737360d01b6064820152608401611394565b613308816140c2565b50565b600060026001540361332f5760405162461bcd60e51b815260040161139490615790565b600260015560008061333f6123f4565b9150915081156133625760405163fb4b701160e01b815260040160405180910390fd5b80156133815760405163ace7fd5560e01b815260040160405180910390fd5b837f000000000000000000000000000000000000000000000000000000000000000080156133e25750336000908152600f602052604090205460ff1615806133e257506001600160a01b0381166000908152600f602052604090205460ff16155b15613400576040516395a584f760e01b815260040160405180910390fd5b61340987613842565b505050506001600160a01b03871660009081526008602090815260408083208151808301909252600201546001600160801b038082168352600160801b909104169181019190915261345c91889061351c565b935061347a8761346b88613591565b61347487613591565b88614738565b505060018055509392505050565b600083602001516001600160801b03166000036134a6575081610e07565b602084015184516001600160801b03918216916134c4911685615956565b6134ce9190615975565b905081801561350c57508284600001516001600160801b031685602001516001600160801b0316836135009190615956565b61350a9190615975565b105b15610e0757610e048160016156b7565b82516000906001600160801b03168103613537575081610e07565b835160208501516001600160801b0391821691613555911685615956565b61355f9190615975565b905081801561350c57508284602001516001600160801b031685600001516001600160801b0316836135009190615956565b60006001600160801b038211156135fa5760405162461bcd60e51b815260206004820152602760248201527f53616665436173743a2076616c756520646f65736e27742066697420696e20316044820152663238206269747360c81b6064820152608401611394565b5090565b60005b6007548110156133085761363b600782815481106136215761362161568b565b6000918252602090912001546001600160a01b0316613842565b50505050808061364a906157c7565b915050613601565b6001600160a01b038085166000908152600660205260409020548591166136975760405163961c9a4f60e01b81526001600160a01b0382166004820152602401611394565b6001600160a01b03808616600090815260066020908152604080832080548516845260048352818420948716845293909152812080548792906136db90849061577d565b92505081905550848160030160008282546136f6919061577d565b90915550506001600160a01b0384163014613721578054613721906001600160a01b031685876140b2565b604080516001600160a01b03888116825260208201889052808616929087169133917fc0178e04b9d08d24311261111383d0d4dc655d6e62b6b66f14b9f7c85542543291015b60405180910390a4505050505050565b600061378282611a10565b61378b83610bd6565b111592915050565b6000546001600160a01b031633146116675760405162461bcd60e51b815260206004820181905260248201527f4f776e61626c653a2063616c6c6572206973206e6f7420746865206f776e65726044820152606401611394565b6137f56149df565b6000805460ff60a01b191690557f5db9ee0a495bf2e6ff9c91a7834c1ba4fdd244a5e8aa4e537bd38aeae4b073aa335b6040516001600160a01b03909116815260200160405180910390a1565b6001600160a01b0381166000908152600860209081526040808320815160808101835260058201546001600160401b038082168352600160401b8204811695830195909552600160801b81048516938201849052600160c01b9004909316606084015283928392839291904290036138c157606001519150613e1d9050565b60408051808201825260028401546001600160801b038082168352600160801b918290048116602080850191909152845180860190955260038701548083168652929092041690830181905290919015806139255750600054600160a01b900460ff165b156139bc57600054600160a01b900460ff166139465763096ba6c460608401525b6001600160401b0342811660408501819052438216808652600587018054602088015160608901518616600160c01b026001600160c01b03600160801b909602959095166001600160801b0391909616600160401b026001600160801b0319909216909317179190911692909217179055613e18565b600083604001516001600160401b0316426139d7919061577d565b835183519192506000916001600160801b03918216916139fb9116620186a0615956565b613a059190615975565b905060008560600151838388600001516001600160401b031643613a29919061577d565b604080516001600160401b0390951660208601528401929092526060830152608082015260a00160408051601f1981840301815290829052631b54c1a360e01b825291506001600160a01b037f00000000000000000000000000000000000000000000000000000000000000001690631b54c1a390613aaf908490600990600401615b10565b602060405180830381865afa158015613acc573d6000803e3d6000fd5b505050506040513d601f19601f82011682018060405250810190613af09190615bab565b606080880151604080516001600160401b03928316815260208101889052908101869052908316918101919091529098507fc63977c8e2362a31182dc8e89a52252f9836922738e0abcfc0de6924972eafe59060800160405180910390a16001600160401b038089166060880181905242821660408901524390911687528451670de0b6b3a76400009190613b8e906001600160801b031686615956565b613b989190615956565b613ba29190615975565b8451909b506001600160801b0390613bbc9082168d6156b7565b11158015613bdf575084516001600160801b0390613bdc9082168d6156b7565b11155b15613d79578a84600001818151613bf6919061575d565b6001600160801b031690525084518b908690613c1390839061575d565b6001600160801b031690525060208601516001600160401b031615613d1c57620186a086602001516001600160401b03168c613c4f9190615956565b613c599190615975565b8551909a50613c72908b906001600160801b031661577d565b6020860151613c8a906001600160801b03168c615956565b613c949190615975565b98508885602001818151613ca8919061575d565b6001600160801b03169052506004878101546040516340c10f1960e01b81523092810192909252602482018b90526001600160a01b0316906340c10f1990604401600060405180830381600087803b158015613d0357600080fd5b505af1158015613d17573d6000803e3d6000fd5b505050505b606080870151604080518e81526001600160401b03909216602083015281018590529081018b9052608081018a90527f50225349cc7e3814c4fa5fe6baef7a3c4cac55e92c64b1f4a5d1ba55e65dcc829060a00160405180910390a15b505082516020808501516001600160801b03908116600160801b90810293821693909317600289015586516005890180548985015160408b015160608c01516001600160401b03908116600160c01b026001600160c01b039282168a0292909216928116600160401b026001600160801b0319949094169516949094179190911784161791909117905584519185015181169092029116176003860155505b505050505b9193509193565b6001600160a01b03808516600090815260086020526040902054859116613e695760405163961c9a4f60e01b81526001600160a01b0382166004820152602401611394565b6001600160a01b03851660009081526008602090815260408083208151808301835260028201546001600160801b038082168352600160801b918290048116838701528451808601909552600384015480821686529190910416938301939093529291613ed591614090565b9050856001600160801b0316811015613f13576040516362ddb6d760e11b8152600481018290526001600160801b0387166024820152604401611394565b600282018054879190600090613f339084906001600160801b0316615736565b92506101000a8154816001600160801b0302191690836001600160801b03160217905550848260020160000160108282829054906101000a90046001600160801b0316613f809190615736565b82546101009290920a6001600160801b0381810219909316918316021790915560048481015460405163079cc67960e41b8152339281019290925291881660248201526001600160a01b0390911691506379cc679090604401600060405180830381600087803b158015613ff357600080fd5b505af1158015614007573d6000803e3d6000fd5b5050835461402b92506001600160a01b03169050856001600160801b0389166140b2565b8154604080516001600160a01b0392831681526001600160801b03898116602083015288168183015290519186169133917ffbde797d201c681b91056529119e0b02407c7bb96a4a2c75c01fc9667232c8db919081900360600190a350505050505050565b805182516000916140a091615736565b6001600160801b031690505b92915050565b6140bd838383614a2f565b505050565b600080546001600160a01b038381166001600160a01b0319831681178455604051919092169283917f8be0079c531659141344cd1fd0a4f28419497f9722a3daafe3b4186f6b6457e09190a35050565b6001600160a01b0385166000908152600860205260408120600381018054919287926141489084906001600160801b0316615736565b92506101000a8154816001600160801b0302191690836001600160801b03160217905550838160030160000160108282829054906101000a90046001600160801b03166141959190615736565b82546101009290920a6001600160801b0381810219909316918316021790915582546001600160a01b039081166000908152600360209081526040808320938816835292905290812080549288169350916141f190849061577d565b90915550506001600160a01b0383163014614226578054614226906001600160a01b031684306001600160801b038916614a92565b604080516001600160a01b0388811682526001600160801b038089166020840152871692820192909252818416918516907f8284c242d0fc1b57fb811089c85a1f02dc427309e830eb1b9f23873ba0530e70906060015b60405180910390a3505050505050565b6001600160a01b038085166000908152600660205260409020548591166142d25760405163961c9a4f60e01b81526001600160a01b0382166004820152602401611394565b6001600160a01b03808616600090815260066020908152604080832080548516845260048352818420948716845293909152812080548692906143169084906156b7565b925050819055508381600301600082825461433191906156b7565b90915550506001600160a01b038516301461435d57805461435d906001600160a01b0316863087614a92565b604080516001600160a01b0388811682526020820187905280861692908816917f86ce7c76199a9570803e9a012134fdeb0e0545d908954f17ad43c02d735091b5910161427d565b6001600160a01b0380841660009081526008602052604081205490918591166143ec5760405163961c9a4f60e01b81526001600160a01b0382166004820152602401611394565b6001600160a01b03808616600090815260086020908152604080832060115460038083015490855283862033808852908652958490205484518086019095526001600160801b03808316808752600160801b90930416958501959095529195169363aff2eb10938b93919291614463916001613488565b8a6040518663ffffffff1660e01b8152600401614484959493929190615bc8565b60006040518083038186803b15801561449c57600080fd5b505afa1580156144b0573d6000803e3d6000fd5b505060408051808201825260038501546001600160801b038082168352600160801b91829004811660208085019190915284518086019095526002880154808316865292909204169083015292506000915061450c9083614090565b9050866001600160801b031681101561454a576040516362ddb6d760e11b8152600481018290526001600160801b0388166024820152604401611394565b61455f826001600160801b038916600161351c565b94508682600001818151614573919061575d565b6001600160801b031690525060208201805186919061459390839061575d565b6001600160801b0390811690915283516020808601518316600160801b02919092161760038087019190915585546001600160a01b03166000908152908252604080822033835290925290812080548893509091906145f39084906156b7565b90915550506001600160a01b0386163014614627578254614627906001600160a01b0316876001600160801b038a166140b2565b604080516001600160a01b038a811682526001600160801b038a1660208301529181018790529087169033907f39cc11445ea1f2e8520bcbbdb2d1ab5652866c6cf4294fdea2a31f256ddc70649060600160405180910390a3505050509392505050565b614693614a9e565b6000805460ff60a01b1916600160a01b1790557f62e78cea01bee320cd4e420270b5ea74000d11b0c9f74754ebdbfc544b05a2586138253390565b60006001600160ff1b038211156135fa5760405162461bcd60e51b815260206004820152602860248201527f53616665436173743a2076616c756520646f65736e27742066697420696e2061604482015267371034b73a191a9b60c11b6064820152608401611394565b6001600160a01b0380851660009081526008602052604090205485911661477d5760405163961c9a4f60e01b81526001600160a01b0382166004820152602401611394565b6001600160a01b0385811660009081526008602052604090819020601154600282015460048084015494516370a0823160e01b8152339181018290529395928316946353a66a56948c9492936001600160801b03169291909116906370a08231906024016020604051808303816000875af1158015614800573d6000803e3d6000fd5b505050506040513d601f19601f82011682018060405250810190614824919061571d565b8a6040518663ffffffff1660e01b8152600401614845959493929190615bc8565b60006040518083038186803b15801561485d57600080fd5b505afa158015614871573d6000803e3d6000fd5b5050506002820180548792506000906148949084906001600160801b031661575d565b92506101000a8154816001600160801b0302191690836001600160801b03160217905550838160020160000160108282829054906101000a90046001600160801b03166148e1919061575d565b82546101009290920a6001600160801b038181021990931691831602179091556004838101546040516340c10f1960e01b81526001600160a01b038881169382019390935292881660248401521691506340c10f1990604401600060405180830381600087803b15801561495457600080fd5b505af1158015614968573d6000803e3d6000fd5b5050825461498d92506001600160a01b0316905033306001600160801b038916614a92565b604080516001600160801b038088168252861660208201526001600160a01b03808616923392918a16917f5fe47ed6d4225326d3303476197d782ded5a4e9c14f479dc9ec4992af4e85d599101613767565b600054600160a01b900460ff166116675760405162461bcd60e51b815260206004820152601460248201527314185d5cd8589b194e881b9bdd081c185d5cd95960621b6044820152606401611394565b6040516001600160a01b0383166024820152604481018290526140bd90849063a9059cbb60e01b906064015b60408051601f198184030181529190526020810180516001600160e01b03166001600160e01b031990931692909217909152614aeb565b6123ee84848484614bbd565b600054600160a01b900460ff16156116675760405162461bcd60e51b815260206004820152601060248201526f14185d5cd8589b194e881c185d5cd95960821b6044820152606401611394565b6000614b40826040518060400160405280602081526020017f5361666545524332303a206c6f772d6c6576656c2063616c6c206661696c6564815250856001600160a01b0316614bf59092919063ffffffff16565b8051909150156140bd5780806020019051810190614b5e9190615997565b6140bd5760405162461bcd60e51b815260206004820152602a60248201527f5361666545524332303a204552433230206f7065726174696f6e20646964206e6044820152691bdd081cdd58d8d9595960b21b6064820152608401611394565b6040516001600160a01b03808516602483015283166044820152606481018290526123ee9085906323b872dd60e01b90608401614a5b565b6060610e048484600085856001600160a01b0385163b614c575760405162461bcd60e51b815260206004820152601d60248201527f416464726573733a2063616c6c20746f206e6f6e2d636f6e74726163740000006044820152606401611394565b600080866001600160a01b03168587604051614c739190615c01565b60006040518083038185875af1925050503d8060008114614cb0576040519150601f19603f3d011682016040523d82523d6000602084013e614cb5565b606091505b5091509150614cc5828286614cd0565b979650505050505050565b60608315614cdf575081610e07565b825115614cef5782518084602001fd5b8160405162461bcd60e51b81526004016113949190614ddb565b6001600160a01b038116811461330857600080fd5b600060208284031215614d3057600080fd5b8135610e0781614d09565b801515811461330857600080fd5b600080600060608486031215614d5e57600080fd5b8335614d6981614d09565b9250602084013591506040840135614d8081614d3b565b809150509250925092565b60005b83811015614da6578181015183820152602001614d8e565b50506000910152565b60008151808452614dc7816020860160208601614d8b565b601f01601f19169290920160200192915050565b602081526000610e076020830184614daf565b600080600060608486031215614e0357600080fd5b8335614e0e81614d09565b92506020840135614e1e81614d09565b91506040840135614d8081614d09565b60008060408385031215614e4157600080fd5b8235614e4c81614d09565b91506020830135614e5c81614d09565b809150509250929050565b600080600060608486031215614e7c57600080fd5b8335614e8781614d09565b9250602084013591506040840135614d8081614d09565b60008083601f840112614eb057600080fd5b5081356001600160401b03811115614ec757600080fd5b6020830191508360208260051b8501011115614ee257600080fd5b9250929050565b600080600060408486031215614efe57600080fd5b83356001600160401b03811115614f1457600080fd5b614f2086828701614e9e565b9094509250506020840135614d8081614d3b565b60008060408385031215614f4757600080fd5b8235614f5281614d09565b91506020830135614e5c81614d3b565b634e487b7160e01b600052604160045260246000fd5b60405161010081016001600160401b0381118282101715614f9b57614f9b614f62565b60405290565b604051601f8201601f191681016001600160401b0381118282101715614fc957614fc9614f62565b604052919050565b8035614fdc81614d09565b919050565b803560ff81168114614fdc57600080fd5b600060c0828403121561500457600080fd5b60405160c081018181106001600160401b038211171561502657615026614f62565b604052905080823561503781614d09565b815261504560208401614fe1565b6020820152604083013561505881614d09565b604082015261506960608401614fe1565b60608201526080830135608082015260a083013560a08201525092915050565b60008060e0838503121561509c57600080fd5b6150a68484614ff2565b9460c0939093013593505050565b60006001600160401b038211156150cd576150cd614f62565b5060051b60200190565b600060208083850312156150ea57600080fd5b82356001600160401b0381111561510057600080fd5b8301601f8101851361511157600080fd5b803561512461511f826150b4565b614fa1565b81815260c0918202830184019184820191908884111561514357600080fd5b938501935b838510156151695761515a8986614ff2565b83529384019391850191615148565b50979650505050505050565b80356001600160801b0381168114614fdc57600080fd5b6000806000606084860312156151a157600080fd5b83356151ac81614d09565b9250614e1e60208501615175565b6000602082840312156151cc57600080fd5b5035919050565b600080600080600060a086880312156151eb57600080fd5b85356151f681614d09565b945060208601359350604086013561520d81614d09565b925060608601359150608086013561522481614d09565b809150509295509295909350565b600080600080600060a0868803121561524a57600080fd5b853561525581614d09565b945061526360208701615175565b9350604086013561520d81614d09565b60006040828403121561528557600080fd5b604051604081018181106001600160401b03821117156152a7576152a7614f62565b6040529050806152b683615175565b81526152c460208401615175565b60208201525092915050565b6001600160401b038116811461330857600080fd5b6000608082840312156152f757600080fd5b604051608081018181106001600160401b038211171561531957615319614f62565b604052905080823561532a816152d0565b8152602083013561533a816152d0565b6020820152604083013561534d816152d0565b60408201526060830135615360816152d0565b6060919091015292915050565b60006101a0828403121561538057600080fd5b615388614f78565b905061539382614fd1565b81526153a160208301614fe1565b60208201526153b260408301614fd1565b60408201526153c360608301614fe1565b60608201526153d58360808401615273565b60808201526153e78360c08401615273565b60a08201526153f96101008301614fd1565b60c082015261540c8361012084016152e5565b60e082015292915050565b6000602080838503121561542a57600080fd5b82356001600160401b0381111561544057600080fd5b8301601f8101851361545157600080fd5b803561545f61511f826150b4565b8181526101a0918202830184019184820191908884111561547f57600080fd5b938501935b8385101561516957615496898661536d565b83529384019391850191615484565b600080600080600080606087890312156154be57600080fd5b86356001600160401b03808211156154d557600080fd5b6154e18a838b01614e9e565b909850965060208901359150808211156154fa57600080fd5b6155068a838b01614e9e565b9096509450604089013591508082111561551f57600080fd5b818901915089601f83011261553357600080fd5b81358181111561554257600080fd5b8a602082850101111561555457600080fd5b6020830194508093505050509295509295509295565b6000806101c0838503121561557e57600080fd5b615588848461536d565b946101a0939093013593505050565b600080604083850312156155aa57600080fd5b82356155b581614d09565b9150602083013563ffffffff81168114614e5c57600080fd5b6001600160a01b03898116825260ff89811660208401528882166040840152871660608301526101a082019061561d608084018880516001600160801b03908116835260209182015116910152565b85516001600160801b0390811660c085015260208701511660e0840152808516610100840152506001600160401b0380845116610120840152806020850151166101408401528060408501511661016084015280606085015116610180840152509998505050505050505050565b634e487b7160e01b600052603260045260246000fd5b634e487b7160e01b600052601160045260246000fd5b808201808211156140ac576140ac6156a1565b600060ff821660ff81036156e0576156e06156a1565b60010192915050565b600181811c908216806156fd57607f821691505b602082108103610daf57634e487b7160e01b600052602260045260246000fd5b60006020828403121561572f57600080fd5b5051919050565b6001600160801b03828116828216039080821115615756576157566156a1565b5092915050565b6001600160801b03818116838216019080821115615756576157566156a1565b818103818111156140ac576140ac6156a1565b6020808252601f908201527f5265656e7472616e637947756172643a207265656e7472616e742063616c6c00604082015260600190565b6000600182016157d9576157d96156a1565b5060010190565b805169ffffffffffffffffffff81168114614fdc57600080fd5b600080600080600060a0868803121561581257600080fd5b61581b866157e0565b945060208601519350604086015192506060860151915061583e608087016157e0565b90509295509295909350565b60ff82811682821603908111156140ac576140ac6156a1565b600181815b8085111561589e578160001904821115615884576158846156a1565b8085161561589157918102915b93841c9390800290615868565b509250929050565b6000826158b5575060016140ac565b816158c2575060006140ac565b81600181146158d857600281146158e2576158fe565b60019150506140ac565b60ff8411156158f3576158f36156a1565b50506001821b6140ac565b5060208310610133831016604e8410600b8410161715615921575081810a6140ac565b61592b8383615863565b806000190482111561593f5761593f6156a1565b029392505050565b6000610e0760ff8416836158a6565b6000816000190483118215151615615970576159706156a1565b500290565b60008261599257634e487b7160e01b600052601260045260246000fd5b500490565b6000602082840312156159a957600080fd5b8151610e0781614d3b565b8181036000831280158383131683831282161715615756576157566156a1565b60208152816020820152818360408301376000818301604090810191909152601f909201601f19160101919050565b601f8211156140bd57600081815260208120601f850160051c81016020861015615a2a5750805b601f850160051c820191505b81811015615a4957828155600101615a36565b505050505050565b6001600160401b03831115615a6857615a68614f62565b615a7c83615a7683546156e9565b83615a03565b6000601f841160018114615ab05760008515615a985750838201355b600019600387901b1c1916600186901b178355611583565b600083815260209020601f19861690835b82811015615ae15786850135825560209485019460019092019101615ac1565b5086821015615afe5760001960f88860031b161c19848701351681555b505060018560011b0183555050505050565b604081526000615b236040830185614daf565b60208382038185015260008554615b39816156e9565b80855260018281168015615b545760018114615b6e57615b9c565b60ff1984168787015282151560051b870186019450615b9c565b896000528560002060005b84811015615b94578154898201890152908301908701615b79565b880187019550505b50929998505050505050505050565b600060208284031215615bbd57600080fd5b8151610e07816152d0565b6001600160a01b0395861681529390941660208401526001600160801b0391821660408401526060830152909116608082015260a00190565b60008251615c13818460208701614d8b565b919091019291505056fea164736f6c6343000810000a",
  "linkReferences": {},
  "deployedLinkReferences": {}
}